{
  "_format": "hh-sol-artifact-1",
  "contractName": "ETHPool",
  "sourceName": "contracts/ETHPool.sol",
  "abi": [
    {
      "inputs": [],
      "stateMutability": "nonpayable",
      "type": "constructor"
    },
    {
      "anonymous": false,
      "inputs": [
        {
          "indexed": true,
          "internalType": "address",
          "name": "addr",
          "type": "address"
        },
        {
          "indexed": false,
          "internalType": "uint256",
          "name": "amount",
          "type": "uint256"
        }
      ],
      "name": "Received",
      "type": "event"
    },
    {
      "anonymous": false,
      "inputs": [
        {
          "indexed": true,
          "internalType": "bytes32",
          "name": "role",
          "type": "bytes32"
        },
        {
          "indexed": true,
          "internalType": "bytes32",
          "name": "previousAdminRole",
          "type": "bytes32"
        },
        {
          "indexed": true,
          "internalType": "bytes32",
          "name": "newAdminRole",
          "type": "bytes32"
        }
      ],
      "name": "RoleAdminChanged",
      "type": "event"
    },
    {
      "anonymous": false,
      "inputs": [
        {
          "indexed": true,
          "internalType": "bytes32",
          "name": "role",
          "type": "bytes32"
        },
        {
          "indexed": true,
          "internalType": "address",
          "name": "account",
          "type": "address"
        },
        {
          "indexed": true,
          "internalType": "address",
          "name": "sender",
          "type": "address"
        }
      ],
      "name": "RoleGranted",
      "type": "event"
    },
    {
      "anonymous": false,
      "inputs": [
        {
          "indexed": true,
          "internalType": "bytes32",
          "name": "role",
          "type": "bytes32"
        },
        {
          "indexed": true,
          "internalType": "address",
          "name": "account",
          "type": "address"
        },
        {
          "indexed": true,
          "internalType": "address",
          "name": "sender",
          "type": "address"
        }
      ],
      "name": "RoleRevoked",
      "type": "event"
    },
    {
      "anonymous": false,
      "inputs": [
        {
          "indexed": true,
          "internalType": "address",
          "name": "addr",
          "type": "address"
        },
        {
          "indexed": false,
          "internalType": "uint256",
          "name": "amount",
          "type": "uint256"
        }
      ],
      "name": "Sent",
      "type": "event"
    },
    {
      "inputs": [],
      "name": "DEFAULT_ADMIN_ROLE",
      "outputs": [
        {
          "internalType": "bytes32",
          "name": "",
          "type": "bytes32"
        }
      ],
      "stateMutability": "view",
      "type": "function"
    },
    {
      "inputs": [],
      "name": "TEAM_MEMBER",
      "outputs": [
        {
          "internalType": "bytes32",
          "name": "",
          "type": "bytes32"
        }
      ],
      "stateMutability": "view",
      "type": "function"
    },
    {
      "inputs": [
        {
          "internalType": "address",
          "name": "account",
          "type": "address"
        }
      ],
      "name": "addTeamMember",
      "outputs": [],
      "stateMutability": "nonpayable",
      "type": "function"
    },
    {
      "inputs": [
        {
          "internalType": "uint256",
          "name": "earned",
          "type": "uint256"
        }
      ],
      "name": "depositRewards",
      "outputs": [
        {
          "internalType": "bool",
          "name": "withdrawed",
          "type": "bool"
        }
      ],
      "stateMutability": "nonpayable",
      "type": "function"
    },
    {
      "inputs": [],
      "name": "getPoolValue",
      "outputs": [
        {
          "internalType": "uint256",
          "name": "",
          "type": "uint256"
        }
      ],
      "stateMutability": "view",
      "type": "function"
    },
    {
      "inputs": [
        {
          "internalType": "bytes32",
          "name": "role",
          "type": "bytes32"
        }
      ],
      "name": "getRoleAdmin",
      "outputs": [
        {
          "internalType": "bytes32",
          "name": "",
          "type": "bytes32"
        }
      ],
      "stateMutability": "view",
      "type": "function"
    },
    {
      "inputs": [
        {
          "internalType": "bytes32",
          "name": "role",
          "type": "bytes32"
        },
        {
          "internalType": "address",
          "name": "account",
          "type": "address"
        }
      ],
      "name": "grantRole",
      "outputs": [],
      "stateMutability": "nonpayable",
      "type": "function"
    },
    {
      "inputs": [
        {
          "internalType": "bytes32",
          "name": "role",
          "type": "bytes32"
        },
        {
          "internalType": "address",
          "name": "account",
          "type": "address"
        }
      ],
      "name": "hasRole",
      "outputs": [
        {
          "internalType": "bool",
          "name": "",
          "type": "bool"
        }
      ],
      "stateMutability": "view",
      "type": "function"
    },
    {
      "inputs": [
        {
          "internalType": "address",
          "name": "account",
          "type": "address"
        }
      ],
      "name": "removeTeamMember",
      "outputs": [],
      "stateMutability": "nonpayable",
      "type": "function"
    },
    {
      "inputs": [
        {
          "internalType": "bytes32",
          "name": "role",
          "type": "bytes32"
        },
        {
          "internalType": "address",
          "name": "account",
          "type": "address"
        }
      ],
      "name": "renounceRole",
      "outputs": [],
      "stateMutability": "nonpayable",
      "type": "function"
    },
    {
      "inputs": [
        {
          "internalType": "address payable",
          "name": "to",
          "type": "address"
        },
        {
          "internalType": "uint256",
          "name": "amount",
          "type": "uint256"
        }
      ],
      "name": "retireMyEther",
      "outputs": [
        {
          "internalType": "bool",
          "name": "success",
          "type": "bool"
        }
      ],
      "stateMutability": "nonpayable",
      "type": "function"
    },
    {
      "inputs": [
        {
          "internalType": "bytes32",
          "name": "role",
          "type": "bytes32"
        },
        {
          "internalType": "address",
          "name": "account",
          "type": "address"
        }
      ],
      "name": "revokeRole",
      "outputs": [],
      "stateMutability": "nonpayable",
      "type": "function"
    },
    {
      "inputs": [
        {
          "internalType": "bytes4",
          "name": "interfaceId",
          "type": "bytes4"
        }
      ],
      "name": "supportsInterface",
      "outputs": [
        {
          "internalType": "bool",
          "name": "",
          "type": "bool"
        }
      ],
      "stateMutability": "view",
      "type": "function"
    },
    {
      "stateMutability": "payable",
      "type": "receive"
    }
  ],
  "bytecode": "0x60806040523480156200001157600080fd5b50620000276000801b336200005f60201b60201c565b620000597f6a74bd5720a9ba372841f356cf6872b1006d19dfc367da64ab98cf47824ed3c0336200005f60201b60201c565b620001d8565b6200007182826200007560201b60201c565b5050565b6200008782826200016660201b60201c565b6200016257600160008084815260200190815260200160002060000160008373ffffffffffffffffffffffffffffffffffffffff1673ffffffffffffffffffffffffffffffffffffffff16815260200190815260200160002060006101000a81548160ff02191690831515021790555062000107620001d060201b60201c565b73ffffffffffffffffffffffffffffffffffffffff168173ffffffffffffffffffffffffffffffffffffffff16837f2f8788117e7eff1d82e926ec794901d17c78024a50270940304540a733656f0d60405160405180910390a45b5050565b600080600084815260200190815260200160002060000160008373ffffffffffffffffffffffffffffffffffffffff1673ffffffffffffffffffffffffffffffffffffffff16815260200190815260200160002060009054906101000a900460ff16905092915050565b600033905090565b611ae380620001e86000396000f3fe6080604052600436106100c55760003560e01c80632f2ff15d1161007f5780638bdf67f2116100595780638bdf67f21461044a57806391d1485414610487578063a217fddf146104c4578063d547741f146104ef57610294565b80632f2ff15d146103cf57806336568abe146103f85780633eb2b5ad1461042157610294565b8062c3dfb11461029957806301ffc9a7146102d657806314eba026146103135780631ba2f5311461033c578063248a9ca3146103675780632c4c7f8c146103a457610294565b36610294576000341161010d576040517f08c379a0000000000000000000000000000000000000000000000000000000008152600401610104906114e4565b60405180910390fd5b600360003373ffffffffffffffffffffffffffffffffffffffff1673ffffffffffffffffffffffffffffffffffffffff16815260200190815260200160002060020160019054906101000a900460ff166101c5576001339080600181540180825580915050600190039060005260206000200160009091909190916101000a81548173ffffffffffffffffffffffffffffffffffffffff021916908373ffffffffffffffffffffffffffffffffffffffff1602179055505b6000600360003373ffffffffffffffffffffffffffffffffffffffff1673ffffffffffffffffffffffffffffffffffffffff16815260200190815260200160002090503481600001600082825461021c9190611566565b92505081905550428160010160008282546102379190611566565b9250508190555060018160020160006101000a81548160ff02191690831515021790555060018160020160016101000a81548160ff021916908315150217905550346002600082825461028a9190611566565b9250508190555050005b600080fd5b3480156102a557600080fd5b506102c060048036038101906102bb919061115f565b610518565b6040516102cd919061142c565b60405180910390f35b3480156102e257600080fd5b506102fd60048036038101906102f8919061120c565b6106a8565b60405161030a919061142c565b60405180910390f35b34801561031f57600080fd5b5061033a60048036038101906103359190611132565b610722565b005b34801561034857600080fd5b50610351610782565b60405161035e9190611524565b60405180910390f35b34801561037357600080fd5b5061038e6004803603810190610389919061119f565b61078a565b60405161039b9190611447565b60405180910390f35b3480156103b057600080fd5b506103b96107a9565b6040516103c69190611447565b60405180910390f35b3480156103db57600080fd5b506103f660048036038101906103f191906111cc565b6107cd565b005b34801561040457600080fd5b5061041f600480360381019061041a91906111cc565b6107f6565b005b34801561042d57600080fd5b5061044860048036038101906104439190611132565b610879565b005b34801561045657600080fd5b50610471600480360381019061046c9190611239565b6108d9565b60405161047e919061142c565b60405180910390f35b34801561049357600080fd5b506104ae60048036038101906104a991906111cc565b610924565b6040516104bb919061142c565b60405180910390f35b3480156104d057600080fd5b506104d961098e565b6040516104e69190611447565b60405180910390f35b3480156104fb57600080fd5b50610516600480360381019061051191906111cc565b610995565b005b600080600360003373ffffffffffffffffffffffffffffffffffffffff1673ffffffffffffffffffffffffffffffffffffffff1681526020019081526020016000209050600081600001549050808411156105a8576040517f08c379a000000000000000000000000000000000000000000000000000000000815260040161059f906114a4565b60405180910390fd5b8473ffffffffffffffffffffffffffffffffffffffff166108fc859081150290604051600060405180830381858888f193505050501580156105ee573d6000803e3d6000fd5b50838260000160008282546106039190611647565b925050819055506000826000015414156106355760008260020160006101000a81548160ff0219169083151502179055505b83600260008282546106479190611647565b925050819055503373ffffffffffffffffffffffffffffffffffffffff167f510ffb4dcab972ae9d2007a58e13f1b0881776d23cd8f5cc32f8c5be2dbf70d2856040516106949190611524565b60405180910390a260019250505092915050565b60007f7965db0b000000000000000000000000000000000000000000000000000000007bffffffffffffffffffffffffffffffffffffffffffffffffffffffff1916827bffffffffffffffffffffffffffffffffffffffffffffffffffffffff1916148061071b575061071a826109be565b5b9050919050565b7f6a74bd5720a9ba372841f356cf6872b1006d19dfc367da64ab98cf47824ed3c06107548161074f610a28565b610a30565b61077e7f6a74bd5720a9ba372841f356cf6872b1006d19dfc367da64ab98cf47824ed3c083610995565b5050565b600047905090565b6000806000838152602001908152602001600020600101549050919050565b7f6a74bd5720a9ba372841f356cf6872b1006d19dfc367da64ab98cf47824ed3c081565b6107d68261078a565b6107e7816107e2610a28565b610a30565b6107f18383610acd565b505050565b6107fe610a28565b73ffffffffffffffffffffffffffffffffffffffff168173ffffffffffffffffffffffffffffffffffffffff161461086b576040517f08c379a000000000000000000000000000000000000000000000000000000000815260040161086290611504565b60405180910390fd5b6108758282610bad565b5050565b7f6a74bd5720a9ba372841f356cf6872b1006d19dfc367da64ab98cf47824ed3c06108ab816108a6610a28565b610a30565b6108d57f6a74bd5720a9ba372841f356cf6872b1006d19dfc367da64ab98cf47824ed3c0836107cd565b5050565b60007f6a74bd5720a9ba372841f356cf6872b1006d19dfc367da64ab98cf47824ed3c061090d81610908610a28565b610a30565b600061091884610c8e565b90508092505050919050565b600080600084815260200190815260200160002060000160008373ffffffffffffffffffffffffffffffffffffffff1673ffffffffffffffffffffffffffffffffffffffff16815260200190815260200160002060009054906101000a900460ff16905092915050565b6000801b81565b61099e8261078a565b6109af816109aa610a28565b610a30565b6109b98383610bad565b505050565b60007f01ffc9a7000000000000000000000000000000000000000000000000000000007bffffffffffffffffffffffffffffffffffffffffffffffffffffffff1916827bffffffffffffffffffffffffffffffffffffffffffffffffffffffff1916149050919050565b600033905090565b610a3a8282610924565b610ac957610a5f8173ffffffffffffffffffffffffffffffffffffffff166014610e8d565b610a6d8360001c6020610e8d565b604051602001610a7e9291906113f2565b6040516020818303038152906040526040517f08c379a0000000000000000000000000000000000000000000000000000000008152600401610ac09190611462565b60405180910390fd5b5050565b610ad78282610924565b610ba957600160008084815260200190815260200160002060000160008373ffffffffffffffffffffffffffffffffffffffff1673ffffffffffffffffffffffffffffffffffffffff16815260200190815260200160002060006101000a81548160ff021916908315150217905550610b4e610a28565b73ffffffffffffffffffffffffffffffffffffffff168173ffffffffffffffffffffffffffffffffffffffff16837f2f8788117e7eff1d82e926ec794901d17c78024a50270940304540a733656f0d60405160405180910390a45b5050565b610bb78282610924565b15610c8a57600080600084815260200190815260200160002060000160008373ffffffffffffffffffffffffffffffffffffffff1673ffffffffffffffffffffffffffffffffffffffff16815260200190815260200160002060006101000a81548160ff021916908315150217905550610c2f610a28565b73ffffffffffffffffffffffffffffffffffffffff168173ffffffffffffffffffffffffffffffffffffffff16837ff6391f5c32d9c69d2a47ea670b442974b53935d1edc7fd64eb21e047a839171b60405160405180910390a45b5050565b60008160026000828254610ca29190611566565b9250508190555060004790508060025414610cf2576040517f08c379a0000000000000000000000000000000000000000000000000000000008152600401610ce9906114c4565b60405180910390fd5b60005b600180549050811015610e8257600060018281548110610d1857610d1761180f565b5b9060005260206000200160009054906101000a900473ffffffffffffffffffffffffffffffffffffffff1690506000600360008373ffffffffffffffffffffffffffffffffffffffff1673ffffffffffffffffffffffffffffffffffffffff168152602001908152602001600020600001549050600060025482610d9c91906115bc565b905060008188610dac91906115ed565b90506000429050600062093a80600360008873ffffffffffffffffffffffffffffffffffffffff1673ffffffffffffffffffffffffffffffffffffffff16815260200190815260200160002060010154610e069190611566565b9050808210610e695782600360008873ffffffffffffffffffffffffffffffffffffffff1673ffffffffffffffffffffffffffffffffffffffff1681526020019081526020016000206000016000828254610e619190611566565b925050819055505b5050505050508080610e7a90611768565b915050610cf5565b506001915050919050565b606060006002836002610ea091906115ed565b610eaa9190611566565b67ffffffffffffffff811115610ec357610ec261183e565b5b6040519080825280601f01601f191660200182016040528015610ef55781602001600182028036833780820191505090505b5090507f300000000000000000000000000000000000000000000000000000000000000081600081518110610f2d57610f2c61180f565b5b60200101907effffffffffffffffffffffffffffffffffffffffffffffffffffffffffffff1916908160001a9053507f780000000000000000000000000000000000000000000000000000000000000081600181518110610f9157610f9061180f565b5b60200101907effffffffffffffffffffffffffffffffffffffffffffffffffffffffffffff1916908160001a90535060006001846002610fd191906115ed565b610fdb9190611566565b90505b600181111561107b577f3031323334353637383961626364656600000000000000000000000000000000600f86166010811061101d5761101c61180f565b5b1a60f81b8282815181106110345761103361180f565b5b60200101907effffffffffffffffffffffffffffffffffffffffffffffffffffffffffffff1916908160001a905350600485901c9450806110749061173e565b9050610fde565b50600084146110bf576040517f08c379a00000000000000000000000000000000000000000000000000000000081526004016110b690611484565b60405180910390fd5b8091505092915050565b6000813590506110d881611a3a565b92915050565b6000813590506110ed81611a51565b92915050565b60008135905061110281611a68565b92915050565b60008135905061111781611a7f565b92915050565b60008135905061112c81611a96565b92915050565b6000602082840312156111485761114761186d565b5b6000611156848285016110c9565b91505092915050565b600080604083850312156111765761117561186d565b5b6000611184858286016110de565b92505060206111958582860161111d565b9150509250929050565b6000602082840312156111b5576111b461186d565b5b60006111c3848285016110f3565b91505092915050565b600080604083850312156111e3576111e261186d565b5b60006111f1858286016110f3565b9250506020611202858286016110c9565b9150509250929050565b6000602082840312156112225761122161186d565b5b600061123084828501611108565b91505092915050565b60006020828403121561124f5761124e61186d565b5b600061125d8482850161111d565b91505092915050565b61126f8161169f565b82525050565b61127e816116ab565b82525050565b600061128f8261153f565b611299818561154a565b93506112a981856020860161170b565b6112b281611872565b840191505092915050565b60006112c88261153f565b6112d2818561155b565b93506112e281856020860161170b565b80840191505092915050565b60006112fb60208361154a565b915061130682611883565b602082019050919050565b600061131e60328361154a565b9150611329826118ac565b604082019050919050565b600061134160298361154a565b915061134c826118fb565b604082019050919050565b600061136460238361154a565b915061136f8261194a565b604082019050919050565b600061138760178361155b565b915061139282611999565b601782019050919050565b60006113aa60118361155b565b91506113b5826119c2565b601182019050919050565b60006113cd602f8361154a565b91506113d8826119eb565b604082019050919050565b6113ec81611701565b82525050565b60006113fd8261137a565b915061140982856112bd565b91506114148261139d565b915061142082846112bd565b91508190509392505050565b60006020820190506114416000830184611266565b92915050565b600060208201905061145c6000830184611275565b92915050565b6000602082019050818103600083015261147c8184611284565b905092915050565b6000602082019050818103600083015261149d816112ee565b9050919050565b600060208201905081810360008301526114bd81611311565b9050919050565b600060208201905081810360008301526114dd81611334565b9050919050565b600060208201905081810360008301526114fd81611357565b9050919050565b6000602082019050818103600083015261151d816113c0565b9050919050565b600060208201905061153960008301846113e3565b92915050565b600081519050919050565b600082825260208201905092915050565b600081905092915050565b600061157182611701565b915061157c83611701565b9250827fffffffffffffffffffffffffffffffffffffffffffffffffffffffffffffffff038211156115b1576115b06117b1565b5b828201905092915050565b60006115c782611701565b91506115d283611701565b9250826115e2576115e16117e0565b5b828204905092915050565b60006115f882611701565b915061160383611701565b9250817fffffffffffffffffffffffffffffffffffffffffffffffffffffffffffffffff048311821515161561163c5761163b6117b1565b5b828202905092915050565b600061165282611701565b915061165d83611701565b9250828210156116705761166f6117b1565b5b828203905092915050565b6000611686826116e1565b9050919050565b6000611698826116e1565b9050919050565b60008115159050919050565b6000819050919050565b60007fffffffff0000000000000000000000000000000000000000000000000000000082169050919050565b600073ffffffffffffffffffffffffffffffffffffffff82169050919050565b6000819050919050565b60005b8381101561172957808201518184015260208101905061170e565b83811115611738576000848401525b50505050565b600061174982611701565b9150600082141561175d5761175c6117b1565b5b600182039050919050565b600061177382611701565b91507fffffffffffffffffffffffffffffffffffffffffffffffffffffffffffffffff8214156117a6576117a56117b1565b5b600182019050919050565b7f4e487b7100000000000000000000000000000000000000000000000000000000600052601160045260246000fd5b7f4e487b7100000000000000000000000000000000000000000000000000000000600052601260045260246000fd5b7f4e487b7100000000000000000000000000000000000000000000000000000000600052603260045260246000fd5b7f4e487b7100000000000000000000000000000000000000000000000000000000600052604160045260246000fd5b600080fd5b6000601f19601f8301169050919050565b7f537472696e67733a20686578206c656e67746820696e73756666696369656e74600082015250565b7f596f752043616e6e6f74207769746864726177206d6f7265204574686572207460008201527f68616e20796f75204465706f73697465642e0000000000000000000000000000602082015250565b7f506f6f6c56616c7565206973206e6f7420657175616c20746f2054686520504f60008201527f4f4c2056414c5545210000000000000000000000000000000000000000000000602082015250565b7f596f75206861766520746f206465706f736974206174206c656173742031207760008201527f65692e0000000000000000000000000000000000000000000000000000000000602082015250565b7f416363657373436f6e74726f6c3a206163636f756e7420000000000000000000600082015250565b7f206973206d697373696e6720726f6c6520000000000000000000000000000000600082015250565b7f416363657373436f6e74726f6c3a2063616e206f6e6c792072656e6f756e636560008201527f20726f6c657320666f722073656c660000000000000000000000000000000000602082015250565b611a438161167b565b8114611a4e57600080fd5b50565b611a5a8161168d565b8114611a6557600080fd5b50565b611a71816116ab565b8114611a7c57600080fd5b50565b611a88816116b5565b8114611a9357600080fd5b50565b611a9f81611701565b8114611aaa57600080fd5b5056fea264697066735822122014ec60e7d03d06d495dab0f2266537c166db60828cddf59be52fbdcae7000b6064736f6c63430008070033",
  "linkReferences": {},
  "deployedLinkReferences": {}
}