{
  "_format": "hh-sol-artifact-1",
  "contractName": "ETHPool",
  "sourceName": "contracts/ETHPool.sol",
  "abi": [
    {
      "inputs": [],
      "stateMutability": "nonpayable",
      "type": "constructor"
    },
    {
      "anonymous": false,
      "inputs": [
        {
          "indexed": false,
          "internalType": "bool",
          "name": "success",
          "type": "bool"
        },
        {
          "indexed": false,
          "internalType": "uint256",
          "name": "amount",
          "type": "uint256"
        }
      ],
      "name": "Deposited",
      "type": "event"
    },
    {
      "anonymous": false,
      "inputs": [
        {
          "indexed": true,
          "internalType": "address",
          "name": "addr",
          "type": "address"
        },
        {
          "indexed": false,
          "internalType": "uint256",
          "name": "amount",
          "type": "uint256"
        }
      ],
      "name": "Received",
      "type": "event"
    },
    {
      "anonymous": false,
      "inputs": [
        {
          "indexed": true,
          "internalType": "bytes32",
          "name": "role",
          "type": "bytes32"
        },
        {
          "indexed": true,
          "internalType": "bytes32",
          "name": "previousAdminRole",
          "type": "bytes32"
        },
        {
          "indexed": true,
          "internalType": "bytes32",
          "name": "newAdminRole",
          "type": "bytes32"
        }
      ],
      "name": "RoleAdminChanged",
      "type": "event"
    },
    {
      "anonymous": false,
      "inputs": [
        {
          "indexed": true,
          "internalType": "bytes32",
          "name": "role",
          "type": "bytes32"
        },
        {
          "indexed": true,
          "internalType": "address",
          "name": "account",
          "type": "address"
        },
        {
          "indexed": true,
          "internalType": "address",
          "name": "sender",
          "type": "address"
        }
      ],
      "name": "RoleGranted",
      "type": "event"
    },
    {
      "anonymous": false,
      "inputs": [
        {
          "indexed": true,
          "internalType": "bytes32",
          "name": "role",
          "type": "bytes32"
        },
        {
          "indexed": true,
          "internalType": "address",
          "name": "account",
          "type": "address"
        },
        {
          "indexed": true,
          "internalType": "address",
          "name": "sender",
          "type": "address"
        }
      ],
      "name": "RoleRevoked",
      "type": "event"
    },
    {
      "anonymous": false,
      "inputs": [
        {
          "indexed": true,
          "internalType": "address",
          "name": "addr",
          "type": "address"
        },
        {
          "indexed": false,
          "internalType": "uint256",
          "name": "amount",
          "type": "uint256"
        }
      ],
      "name": "Sent",
      "type": "event"
    },
    {
      "inputs": [],
      "name": "DEFAULT_ADMIN_ROLE",
      "outputs": [
        {
          "internalType": "bytes32",
          "name": "",
          "type": "bytes32"
        }
      ],
      "stateMutability": "view",
      "type": "function"
    },
    {
      "inputs": [],
      "name": "TEAM_MEMBER",
      "outputs": [
        {
          "internalType": "bytes32",
          "name": "",
          "type": "bytes32"
        }
      ],
      "stateMutability": "view",
      "type": "function"
    },
    {
      "inputs": [
        {
          "internalType": "uint256",
          "name": "",
          "type": "uint256"
        }
      ],
      "name": "accounts",
      "outputs": [
        {
          "internalType": "address",
          "name": "",
          "type": "address"
        }
      ],
      "stateMutability": "view",
      "type": "function"
    },
    {
      "inputs": [
        {
          "internalType": "address",
          "name": "account",
          "type": "address"
        }
      ],
      "name": "addTeamMember",
      "outputs": [],
      "stateMutability": "nonpayable",
      "type": "function"
    },
    {
      "inputs": [
        {
          "internalType": "uint256",
          "name": "earned",
          "type": "uint256"
        }
      ],
      "name": "depositRewards",
      "outputs": [],
      "stateMutability": "nonpayable",
      "type": "function"
    },
    {
      "inputs": [],
      "name": "getPoolValue",
      "outputs": [
        {
          "internalType": "uint256",
          "name": "",
          "type": "uint256"
        }
      ],
      "stateMutability": "view",
      "type": "function"
    },
    {
      "inputs": [
        {
          "internalType": "bytes32",
          "name": "role",
          "type": "bytes32"
        }
      ],
      "name": "getRoleAdmin",
      "outputs": [
        {
          "internalType": "bytes32",
          "name": "",
          "type": "bytes32"
        }
      ],
      "stateMutability": "view",
      "type": "function"
    },
    {
      "inputs": [
        {
          "internalType": "bytes32",
          "name": "role",
          "type": "bytes32"
        },
        {
          "internalType": "address",
          "name": "account",
          "type": "address"
        }
      ],
      "name": "grantRole",
      "outputs": [],
      "stateMutability": "nonpayable",
      "type": "function"
    },
    {
      "inputs": [
        {
          "internalType": "bytes32",
          "name": "role",
          "type": "bytes32"
        },
        {
          "internalType": "address",
          "name": "account",
          "type": "address"
        }
      ],
      "name": "hasRole",
      "outputs": [
        {
          "internalType": "bool",
          "name": "",
          "type": "bool"
        }
      ],
      "stateMutability": "view",
      "type": "function"
    },
    {
      "inputs": [
        {
          "internalType": "address",
          "name": "account",
          "type": "address"
        }
      ],
      "name": "removeTeamMember",
      "outputs": [],
      "stateMutability": "nonpayable",
      "type": "function"
    },
    {
      "inputs": [
        {
          "internalType": "bytes32",
          "name": "role",
          "type": "bytes32"
        },
        {
          "internalType": "address",
          "name": "account",
          "type": "address"
        }
      ],
      "name": "renounceRole",
      "outputs": [],
      "stateMutability": "nonpayable",
      "type": "function"
    },
    {
      "inputs": [
        {
          "internalType": "address payable",
          "name": "to",
          "type": "address"
        },
        {
          "internalType": "uint256",
          "name": "amount",
          "type": "uint256"
        }
      ],
      "name": "retireMyEther",
      "outputs": [],
      "stateMutability": "nonpayable",
      "type": "function"
    },
    {
      "inputs": [
        {
          "internalType": "bytes32",
          "name": "role",
          "type": "bytes32"
        },
        {
          "internalType": "address",
          "name": "account",
          "type": "address"
        }
      ],
      "name": "revokeRole",
      "outputs": [],
      "stateMutability": "nonpayable",
      "type": "function"
    },
    {
      "inputs": [
        {
          "internalType": "bytes4",
          "name": "interfaceId",
          "type": "bytes4"
        }
      ],
      "name": "supportsInterface",
      "outputs": [
        {
          "internalType": "bool",
          "name": "",
          "type": "bool"
        }
      ],
      "stateMutability": "view",
      "type": "function"
    },
    {
      "inputs": [],
      "name": "time",
      "outputs": [
        {
          "internalType": "uint256",
          "name": "",
          "type": "uint256"
        }
      ],
      "stateMutability": "view",
      "type": "function"
    },
    {
      "inputs": [
        {
          "internalType": "address",
          "name": "",
          "type": "address"
        }
      ],
      "name": "users",
      "outputs": [
        {
          "internalType": "uint256",
          "name": "valueDeposited",
          "type": "uint256"
        },
        {
          "internalType": "uint256",
          "name": "startDate",
          "type": "uint256"
        },
        {
          "internalType": "bool",
          "name": "newUser",
          "type": "bool"
        }
      ],
      "stateMutability": "view",
      "type": "function"
    },
    {
      "stateMutability": "payable",
      "type": "receive"
    }
  ],
  "bytecode": "0x60806040523480156200001157600080fd5b50620000276000801b336200005f60201b60201c565b620000597f6a74bd5720a9ba372841f356cf6872b1006d19dfc367da64ab98cf47824ed3c0336200005f60201b60201c565b620001d8565b6200007182826200007560201b60201c565b5050565b6200008782826200016660201b60201c565b6200016257600160008084815260200190815260200160002060000160008373ffffffffffffffffffffffffffffffffffffffff1673ffffffffffffffffffffffffffffffffffffffff16815260200190815260200160002060006101000a81548160ff02191690831515021790555062000107620001d060201b60201c565b73ffffffffffffffffffffffffffffffffffffffff168173ffffffffffffffffffffffffffffffffffffffff16837f2f8788117e7eff1d82e926ec794901d17c78024a50270940304540a733656f0d60405160405180910390a45b5050565b600080600084815260200190815260200160002060000160008373ffffffffffffffffffffffffffffffffffffffff1673ffffffffffffffffffffffffffffffffffffffff16815260200190815260200160002060009054906101000a900460ff16905092915050565b600033905090565b611cc680620001e86000396000f3fe6080604052600436106100f65760003560e01c806336568abe1161008a578063a217fddf11610059578063a217fddf146104fe578063a87430ba14610529578063d547741f14610568578063f2a40db814610591576102cb565b806336568abe146104465780633eb2b5ad1461046f5780638bdf67f21461049857806391d14854146104c1576102cb565b80631ba2f531116100c65780631ba2f5311461038a578063248a9ca3146103b55780632c4c7f8c146103f25780632f2ff15d1461041d576102cb565b8062c3dfb1146102d057806301ffc9a7146102f957806314eba0261461033657806316ada5471461035f576102cb565b366102cb576000341161013e576040517f08c379a0000000000000000000000000000000000000000000000000000000008152600401610135906112a5565b60405180910390fd5b600260003373ffffffffffffffffffffffffffffffffffffffff1673ffffffffffffffffffffffffffffffffffffffff16815260200190815260200160002060020160009054906101000a900460ff166101f6576001339080600181540180825580915050600190039060005260206000200160009091909190916101000a81548173ffffffffffffffffffffffffffffffffffffffff021916908373ffffffffffffffffffffffffffffffffffffffff1602179055505b6000600260003373ffffffffffffffffffffffffffffffffffffffff1673ffffffffffffffffffffffffffffffffffffffff16815260200190815260200160002090503481600001600082825461024d91906112fe565b9250508190555042816001018190555060018160020160006101000a81548160ff0219169083151502179055503373ffffffffffffffffffffffffffffffffffffffff167f88a5966d370b9919b20f3e2c13ff65706f196a4e32cc2c12bf57088f88525874346040516102c09190611363565b60405180910390a250005b600080fd5b3480156102dc57600080fd5b506102f760048036038101906102f2919061140d565b6105ce565b005b34801561030557600080fd5b50610320600480360381019061031b91906114a5565b61074b565b60405161032d91906114ed565b60405180910390f35b34801561034257600080fd5b5061035d60048036038101906103589190611546565b6107c5565b005b34801561036b57600080fd5b50610374610825565b6040516103819190611363565b60405180910390f35b34801561039657600080fd5b5061039f61082c565b6040516103ac9190611363565b60405180910390f35b3480156103c157600080fd5b506103dc60048036038101906103d791906115a9565b610834565b6040516103e991906115e5565b60405180910390f35b3480156103fe57600080fd5b50610407610853565b60405161041491906115e5565b60405180910390f35b34801561042957600080fd5b50610444600480360381019061043f9190611600565b610877565b005b34801561045257600080fd5b5061046d60048036038101906104689190611600565b6108a0565b005b34801561047b57600080fd5b5061049660048036038101906104919190611546565b610923565b005b3480156104a457600080fd5b506104bf60048036038101906104ba9190611640565b610983565b005b3480156104cd57600080fd5b506104e860048036038101906104e39190611600565b610a40565b6040516104f591906114ed565b60405180910390f35b34801561050a57600080fd5b50610513610aaa565b60405161052091906115e5565b60405180910390f35b34801561053557600080fd5b50610550600480360381019061054b9190611546565b610ab1565b60405161055f9392919061166d565b60405180910390f35b34801561057457600080fd5b5061058f600480360381019061058a9190611600565b610ae8565b005b34801561059d57600080fd5b506105b860048036038101906105b39190611640565b610b11565b6040516105c591906116b3565b60405180910390f35b6000600260003373ffffffffffffffffffffffffffffffffffffffff1673ffffffffffffffffffffffffffffffffffffffff16815260200190815260200160002060000154905080821115610658576040517f08c379a000000000000000000000000000000000000000000000000000000000815260040161064f90611740565b60405180910390fd5b8273ffffffffffffffffffffffffffffffffffffffff166108fc839081150290604051600060405180830381858888f1935050505015801561069e573d6000803e3d6000fd5b5081600260003373ffffffffffffffffffffffffffffffffffffffff1673ffffffffffffffffffffffffffffffffffffffff16815260200190815260200160002060000160008282546106f19190611760565b925050819055503373ffffffffffffffffffffffffffffffffffffffff167f510ffb4dcab972ae9d2007a58e13f1b0881776d23cd8f5cc32f8c5be2dbf70d28360405161073e9190611363565b60405180910390a2505050565b60007f7965db0b000000000000000000000000000000000000000000000000000000007bffffffffffffffffffffffffffffffffffffffffffffffffffffffff1916827bffffffffffffffffffffffffffffffffffffffffffffffffffffffff191614806107be57506107bd82610b50565b5b9050919050565b7f6a74bd5720a9ba372841f356cf6872b1006d19dfc367da64ab98cf47824ed3c06107f7816107f2610bba565b610bc2565b6108217f6a74bd5720a9ba372841f356cf6872b1006d19dfc367da64ab98cf47824ed3c083610ae8565b5050565b62093a8081565b600047905090565b6000806000838152602001908152602001600020600101549050919050565b7f6a74bd5720a9ba372841f356cf6872b1006d19dfc367da64ab98cf47824ed3c081565b61088082610834565b6108918161088c610bba565b610bc2565b61089b8383610c5f565b505050565b6108a8610bba565b73ffffffffffffffffffffffffffffffffffffffff168173ffffffffffffffffffffffffffffffffffffffff1614610915576040517f08c379a000000000000000000000000000000000000000000000000000000000815260040161090c90611806565b60405180910390fd5b61091f8282610d3f565b5050565b7f6a74bd5720a9ba372841f356cf6872b1006d19dfc367da64ab98cf47824ed3c061095581610950610bba565b610bc2565b61097f7f6a74bd5720a9ba372841f356cf6872b1006d19dfc367da64ab98cf47824ed3c083610877565b5050565b7f6a74bd5720a9ba372841f356cf6872b1006d19dfc367da64ab98cf47824ed3c06109b5816109b0610bba565b610bc2565b60006109c083610e20565b905080610a02576040517f08c379a00000000000000000000000000000000000000000000000000000000081526004016109f990611898565b60405180910390fd5b7fb008c3dccdfc37acd11473d48748ea73e01a5f6792e0dab60fe4441046d96ca28184604051610a339291906118b8565b60405180910390a1505050565b600080600084815260200190815260200160002060000160008373ffffffffffffffffffffffffffffffffffffffff1673ffffffffffffffffffffffffffffffffffffffff16815260200190815260200160002060009054906101000a900460ff16905092915050565b6000801b81565b60026020528060005260406000206000915090508060000154908060010154908060020160009054906101000a900460ff16905083565b610af182610834565b610b0281610afd610bba565b610bc2565b610b0c8383610d3f565b505050565b60018181548110610b2157600080fd5b906000526020600020016000915054906101000a900473ffffffffffffffffffffffffffffffffffffffff1681565b60007f01ffc9a7000000000000000000000000000000000000000000000000000000007bffffffffffffffffffffffffffffffffffffffffffffffffffffffff1916827bffffffffffffffffffffffffffffffffffffffffffffffffffffffff1916149050919050565b600033905090565b610bcc8282610a40565b610c5b57610bf18173ffffffffffffffffffffffffffffffffffffffff166014610fe6565b610bff8360001c6020610fe6565b604051602001610c109291906119f3565b6040516020818303038152906040526040517f08c379a0000000000000000000000000000000000000000000000000000000008152600401610c529190611a77565b60405180910390fd5b5050565b610c698282610a40565b610d3b57600160008084815260200190815260200160002060000160008373ffffffffffffffffffffffffffffffffffffffff1673ffffffffffffffffffffffffffffffffffffffff16815260200190815260200160002060006101000a81548160ff021916908315150217905550610ce0610bba565b73ffffffffffffffffffffffffffffffffffffffff168173ffffffffffffffffffffffffffffffffffffffff16837f2f8788117e7eff1d82e926ec794901d17c78024a50270940304540a733656f0d60405160405180910390a45b5050565b610d498282610a40565b15610e1c57600080600084815260200190815260200160002060000160008373ffffffffffffffffffffffffffffffffffffffff1673ffffffffffffffffffffffffffffffffffffffff16815260200190815260200160002060006101000a81548160ff021916908315150217905550610dc1610bba565b73ffffffffffffffffffffffffffffffffffffffff168173ffffffffffffffffffffffffffffffffffffffff16837ff6391f5c32d9c69d2a47ea670b442974b53935d1edc7fd64eb21e047a839171b60405160405180910390a45b5050565b60008047905060005b600180549050811015610fdb57600060018281548110610e4c57610e4b611a99565b5b9060005260206000200160009054906101000a900473ffffffffffffffffffffffffffffffffffffffff1690506000600260008373ffffffffffffffffffffffffffffffffffffffff1673ffffffffffffffffffffffffffffffffffffffff168152602001908152602001600020600001549050600084670de0b6b3a764000083610ed79190611ac8565b610ee19190611b51565b90506000670de0b6b3a76400008289610efa9190611ac8565b610f049190611b51565b90506000429050600062093a80600260008873ffffffffffffffffffffffffffffffffffffffff1673ffffffffffffffffffffffffffffffffffffffff16815260200190815260200160002060010154610f5e91906112fe565b905080821115610fc25782600260008873ffffffffffffffffffffffffffffffffffffffff1673ffffffffffffffffffffffffffffffffffffffff1681526020019081526020016000206000016000828254610fba91906112fe565b925050819055505b5050505050508080610fd390611b82565b915050610e29565b506001915050919050565b606060006002836002610ff99190611ac8565b61100391906112fe565b67ffffffffffffffff81111561101c5761101b611bcb565b5b6040519080825280601f01601f19166020018201604052801561104e5781602001600182028036833780820191505090505b5090507f30000000000000000000000000000000000000000000000000000000000000008160008151811061108657611085611a99565b5b60200101907effffffffffffffffffffffffffffffffffffffffffffffffffffffffffffff1916908160001a9053507f7800000000000000000000000000000000000000000000000000000000000000816001815181106110ea576110e9611a99565b5b60200101907effffffffffffffffffffffffffffffffffffffffffffffffffffffffffffff1916908160001a9053506000600184600261112a9190611ac8565b61113491906112fe565b90505b60018111156111d4577f3031323334353637383961626364656600000000000000000000000000000000600f86166010811061117657611175611a99565b5b1a60f81b82828151811061118d5761118c611a99565b5b60200101907effffffffffffffffffffffffffffffffffffffffffffffffffffffffffffff1916908160001a905350600485901c9450806111cd90611bfa565b9050611137565b5060008414611218576040517f08c379a000000000000000000000000000000000000000000000000000000000815260040161120f90611c70565b60405180910390fd5b8091505092915050565b600082825260208201905092915050565b7f596f75206861766520746f206465706f736974206174206c656173742031207760008201527f65692e0000000000000000000000000000000000000000000000000000000000602082015250565b600061128f602383611222565b915061129a82611233565b604082019050919050565b600060208201905081810360008301526112be81611282565b9050919050565b6000819050919050565b7f4e487b7100000000000000000000000000000000000000000000000000000000600052601160045260246000fd5b6000611309826112c5565b9150611314836112c5565b9250827fffffffffffffffffffffffffffffffffffffffffffffffffffffffffffffffff03821115611349576113486112cf565b5b828201905092915050565b61135d816112c5565b82525050565b60006020820190506113786000830184611354565b92915050565b600080fd5b600073ffffffffffffffffffffffffffffffffffffffff82169050919050565b60006113ae82611383565b9050919050565b6113be816113a3565b81146113c957600080fd5b50565b6000813590506113db816113b5565b92915050565b6113ea816112c5565b81146113f557600080fd5b50565b600081359050611407816113e1565b92915050565b600080604083850312156114245761142361137e565b5b6000611432858286016113cc565b9250506020611443858286016113f8565b9150509250929050565b60007fffffffff0000000000000000000000000000000000000000000000000000000082169050919050565b6114828161144d565b811461148d57600080fd5b50565b60008135905061149f81611479565b92915050565b6000602082840312156114bb576114ba61137e565b5b60006114c984828501611490565b91505092915050565b60008115159050919050565b6114e7816114d2565b82525050565b600060208201905061150260008301846114de565b92915050565b600061151382611383565b9050919050565b61152381611508565b811461152e57600080fd5b50565b6000813590506115408161151a565b92915050565b60006020828403121561155c5761155b61137e565b5b600061156a84828501611531565b91505092915050565b6000819050919050565b61158681611573565b811461159157600080fd5b50565b6000813590506115a38161157d565b92915050565b6000602082840312156115bf576115be61137e565b5b60006115cd84828501611594565b91505092915050565b6115df81611573565b82525050565b60006020820190506115fa60008301846115d6565b92915050565b600080604083850312156116175761161661137e565b5b600061162585828601611594565b925050602061163685828601611531565b9150509250929050565b6000602082840312156116565761165561137e565b5b6000611664848285016113f8565b91505092915050565b60006060820190506116826000830186611354565b61168f6020830185611354565b61169c60408301846114de565b949350505050565b6116ad81611508565b82525050565b60006020820190506116c860008301846116a4565b92915050565b7f596f752043616e6e6f74207769746864726177206d6f7265204574686572207460008201527f68616e20796f75204465706f73697465642e0000000000000000000000000000602082015250565b600061172a603283611222565b9150611735826116ce565b604082019050919050565b600060208201905081810360008301526117598161171d565b9050919050565b600061176b826112c5565b9150611776836112c5565b925082821015611789576117886112cf565b5b828203905092915050565b7f416363657373436f6e74726f6c3a2063616e206f6e6c792072656e6f756e636560008201527f20726f6c657320666f722073656c660000000000000000000000000000000000602082015250565b60006117f0602f83611222565b91506117fb82611794565b604082019050919050565b6000602082019050818103600083015261181f816117e3565b9050919050565b7f436f6e747261637420636f756c64206e6f74206465706f73697420726577617260008201527f64732e0000000000000000000000000000000000000000000000000000000000602082015250565b6000611882602383611222565b915061188d82611826565b604082019050919050565b600060208201905081810360008301526118b181611875565b9050919050565b60006040820190506118cd60008301856114de565b6118da6020830184611354565b9392505050565b600081905092915050565b7f416363657373436f6e74726f6c3a206163636f756e7420000000000000000000600082015250565b60006119226017836118e1565b915061192d826118ec565b601782019050919050565b600081519050919050565b60005b83811015611961578082015181840152602081019050611946565b83811115611970576000848401525b50505050565b600061198182611938565b61198b81856118e1565b935061199b818560208601611943565b80840191505092915050565b7f206973206d697373696e6720726f6c6520000000000000000000000000000000600082015250565b60006119dd6011836118e1565b91506119e8826119a7565b601182019050919050565b60006119fe82611915565b9150611a0a8285611976565b9150611a15826119d0565b9150611a218284611976565b91508190509392505050565b6000601f19601f8301169050919050565b6000611a4982611938565b611a538185611222565b9350611a63818560208601611943565b611a6c81611a2d565b840191505092915050565b60006020820190508181036000830152611a918184611a3e565b905092915050565b7f4e487b7100000000000000000000000000000000000000000000000000000000600052603260045260246000fd5b6000611ad3826112c5565b9150611ade836112c5565b9250817fffffffffffffffffffffffffffffffffffffffffffffffffffffffffffffffff0483118215151615611b1757611b166112cf565b5b828202905092915050565b7f4e487b7100000000000000000000000000000000000000000000000000000000600052601260045260246000fd5b6000611b5c826112c5565b9150611b67836112c5565b925082611b7757611b76611b22565b5b828204905092915050565b6000611b8d826112c5565b91507fffffffffffffffffffffffffffffffffffffffffffffffffffffffffffffffff821415611bc057611bbf6112cf565b5b600182019050919050565b7f4e487b7100000000000000000000000000000000000000000000000000000000600052604160045260246000fd5b6000611c05826112c5565b91506000821415611c1957611c186112cf565b5b600182039050919050565b7f537472696e67733a20686578206c656e67746820696e73756666696369656e74600082015250565b6000611c5a602083611222565b9150611c6582611c24565b602082019050919050565b60006020820190508181036000830152611c8981611c4d565b905091905056fea26469706673582212201b1e817060ef4ee56b9fa75cfa074fdd1a193ebcb67e157b9869892d15ea756d64736f6c634300080b0033",
  "linkReferences": {},
  "deployedLinkReferences": {}
}